{
  "contractName": "TodoList",
  "abi": [
    {
      "inputs": [],
      "payable": false,
      "stateMutability": "nonpayable",
      "type": "constructor"
    },
    {
      "anonymous": false,
      "inputs": [
        {
          "indexed": false,
          "internalType": "uint256",
          "name": "id",
          "type": "uint256"
        },
        {
          "indexed": false,
          "internalType": "bool",
          "name": "completed",
          "type": "bool"
        }
      ],
      "name": "TaskCompleted",
      "type": "event"
    },
    {
      "anonymous": false,
      "inputs": [
        {
          "indexed": false,
          "internalType": "uint256",
          "name": "id",
          "type": "uint256"
        },
        {
          "indexed": false,
          "internalType": "string",
          "name": "content",
          "type": "string"
        },
        {
          "indexed": false,
          "internalType": "string",
          "name": "longDescription",
          "type": "string"
        },
        {
          "indexed": false,
          "internalType": "uint256",
          "name": "dueDate",
          "type": "uint256"
        },
        {
          "indexed": false,
          "internalType": "bool",
          "name": "completed",
          "type": "bool"
        }
      ],
      "name": "TaskCreated",
      "type": "event"
    },
    {
      "payable": true,
      "stateMutability": "payable",
      "type": "fallback"
    },
    {
      "constant": true,
      "inputs": [],
      "name": "taskCount",
      "outputs": [
        {
          "internalType": "uint256",
          "name": "",
          "type": "uint256"
        }
      ],
      "payable": false,
      "stateMutability": "view",
      "type": "function"
    },
    {
      "constant": true,
      "inputs": [
        {
          "internalType": "address",
          "name": "",
          "type": "address"
        }
      ],
      "name": "taskCounts",
      "outputs": [
        {
          "internalType": "uint256",
          "name": "",
          "type": "uint256"
        }
      ],
      "payable": false,
      "stateMutability": "view",
      "type": "function"
    },
    {
      "constant": true,
      "inputs": [
        {
          "internalType": "address",
          "name": "",
          "type": "address"
        },
        {
          "internalType": "uint256",
          "name": "",
          "type": "uint256"
        }
      ],
      "name": "tasks",
      "outputs": [
        {
          "internalType": "uint256",
          "name": "id",
          "type": "uint256"
        },
        {
          "internalType": "string",
          "name": "content",
          "type": "string"
        },
        {
          "internalType": "string",
          "name": "longDescription",
          "type": "string"
        },
        {
          "internalType": "uint256",
          "name": "dueDate",
          "type": "uint256"
        },
        {
          "internalType": "bool",
          "name": "completed",
          "type": "bool"
        }
      ],
      "payable": false,
      "stateMutability": "view",
      "type": "function"
    },
    {
      "constant": false,
      "inputs": [
        {
          "internalType": "string",
          "name": "_content",
          "type": "string"
        },
        {
          "internalType": "string",
          "name": "_longDescription",
          "type": "string"
        },
        {
          "internalType": "uint256",
          "name": "_dueDate",
          "type": "uint256"
        }
      ],
      "name": "createTask",
      "outputs": [],
      "payable": false,
      "stateMutability": "nonpayable",
      "type": "function"
    },
    {
      "constant": false,
      "inputs": [
        {
          "internalType": "uint256",
          "name": "_id",
          "type": "uint256"
        }
      ],
      "name": "toggleCompleted",
      "outputs": [],
      "payable": false,
      "stateMutability": "nonpayable",
      "type": "function"
    },
    {
      "constant": true,
      "inputs": [],
      "name": "getTaskCount",
      "outputs": [
        {
          "internalType": "uint256",
          "name": "",
          "type": "uint256"
        }
      ],
      "payable": false,
      "stateMutability": "view",
      "type": "function"
    },
    {
      "constant": true,
      "inputs": [
        {
          "internalType": "uint256",
          "name": "_id",
          "type": "uint256"
        }
      ],
      "name": "getTask",
      "outputs": [
        {
          "internalType": "uint256",
          "name": "",
          "type": "uint256"
        },
        {
          "internalType": "string",
          "name": "",
          "type": "string"
        },
        {
          "internalType": "string",
          "name": "",
          "type": "string"
        },
        {
          "internalType": "uint256",
          "name": "",
          "type": "uint256"
        },
        {
          "internalType": "bool",
          "name": "",
          "type": "bool"
        }
      ],
      "payable": false,
      "stateMutability": "view",
      "type": "function"
    }
  ],
  "bytecode": "0x6080604052600080553480156200001557600080fd5b506200006d6040518060400160405280600b81526020016a53616d706c65207461736b60a81b81525060405180606001604052806021815260200162000d16602191396201518042016001600160e01b036200007316565b620002ff565b3360008181526001602081815260408084208054840190819055815160a0810183528181528084018a81528184018a90526060820189905260808201879052968652600284528286208287528452919094208151815594518051949591949193620000e593908501929101906200025a565b5060408201518051620001039160028401916020909101906200025a565b506060820151816003015560808201518160040160006101000a81548160ff0219169083151502179055509050507faa0d14f4d7063208a693384c8210dcb17d0157cd123937224f14fb63e22c16ec81858585600060405180868152602001806020018060200185815260200184151515158152602001838103835287818151815260200191508051906020019080838360005b83811015620001b157818101518382015260200162000197565b50505050905090810190601f168015620001df5780820380516001836020036101000a031916815260200191505b50838103825286518152865160209182019188019080838360005b8381101562000214578181015183820152602001620001fa565b50505050905090810190601f168015620002425780820380516001836020036101000a031916815260200191505b5097505050505050505060405180910390a150505050565b828054600181600116156101000203166002900490600052602060002090601f016020900481019282601f106200029d57805160ff1916838001178555620002cd565b82800160010185558215620002cd579182015b82811115620002cd578251825591602001919060010190620002b0565b50620002db929150620002df565b5090565b620002fc91905b80821115620002db5760008155600101620002e6565b90565b610a07806200030f6000396000f3fe6080604052600436106100705760003560e01c80634a84d2e71161004e5780634a84d2e7146102f95780637149d2e41461033e578063b6cb58a514610377578063c17a340e1461038c57610070565b80631d65e77e1461007257806341a4e30a14610193578063455f5024146102cf575b005b34801561007e57600080fd5b5061009c6004803603602081101561009557600080fd5b50356103a1565b60405180868152602001806020018060200185815260200184151515158152602001838103835287818151815260200191508051906020019080838360005b838110156100f35781810151838201526020016100db565b50505050905090810190601f1680156101205780820380516001836020036101000a031916815260200191505b50838103825286518152865160209182019188019080838360005b8381101561015357818101518382015260200161013b565b50505050905090810190601f1680156101805780820380516001836020036101000a031916815260200191505b5097505050505050505060405180910390f35b34801561019f57600080fd5b50610070600480360360608110156101b657600080fd5b8101906020810181356401000000008111156101d157600080fd5b8201836020820111156101e357600080fd5b8035906020019184600183028401116401000000008311171561020557600080fd5b91908080601f016020809104026020016040519081016040528093929190818152602001838380828437600092019190915250929594936020810193503591505064010000000081111561025857600080fd5b82018360208201111561026a57600080fd5b8035906020019184600183028401116401000000008311171561028c57600080fd5b91908080601f0160208091040260200160405190810160405280939291908181526020018383808284376000920191909152509295505091359250610542915050565b3480156102db57600080fd5b50610070600480360360208110156102f257600080fd5b503561071f565b34801561030557600080fd5b5061032c6004803603602081101561031c57600080fd5b50356001600160a01b0316610790565b60408051918252519081900360200190f35b34801561034a57600080fd5b5061009c6004803603604081101561036157600080fd5b506001600160a01b0381351690602001356107a2565b34801561038357600080fd5b5061032c6108ef565b34801561039857600080fd5b5061032c6108f5565b60006060806000806103b1610909565b3360009081526002602081815260408084208b8552825292839020835160a081018552815481526001808301805487519281161561010002600019011695909504601f81018590048502820185019096528581529094919385840193919290918301828280156104625780601f1061043757610100808354040283529160200191610462565b820191906000526020600020905b81548152906001019060200180831161044557829003601f168201915b5050509183525050600282810180546040805160206001841615610100026000190190931694909404601f810183900483028501830190915280845293810193908301828280156104f45780601f106104c9576101008083540402835291602001916104f4565b820191906000526020600020905b8154815290600101906020018083116104d757829003601f168201915b5050509183525050600382015460208083019190915260049092015460ff161515604091820152825191830151908301516060840151608090940151929b919a509850919650945092505050565b3360008181526001602081815260408084208054840190819055815160a0810183528181528084018a81528184018a905260608201899052608082018790529686526002845282862082875284529190942081518155945180519495919491936105b2939085019291019061093a565b50604082015180516105ce91600284019160209091019061093a565b506060820151816003015560808201518160040160006101000a81548160ff0219169083151502179055509050507faa0d14f4d7063208a693384c8210dcb17d0157cd123937224f14fb63e22c16ec81858585600060405180868152602001806020018060200185815260200184151515158152602001838103835287818151815260200191508051906020019080838360005b8381101561067a578181015183820152602001610662565b50505050905090810190601f1680156106a75780820380516001836020036101000a031916815260200191505b50838103825286518152865160209182019188019080838360005b838110156106da5781810151838201526020016106c2565b50505050905090810190601f1680156107075780820380516001836020036101000a031916815260200191505b5097505050505050505060405180910390a150505050565b33600090815260026020908152604080832084845282529182902060048101805460ff19811660ff91821615179182905584518681529116151592810192909252825190927fe21fa966ca5cd02748c0752352d18c48165e61cb55b4c29cccf924b5a95fcff1928290030190a15050565b60016020526000908152604090205481565b600260208181526000938452604080852082529284529282902080546001808301805486519281161561010002600019011694909404601f8101879004870282018701909552848152909491939092918301828280156108435780601f1061081857610100808354040283529160200191610843565b820191906000526020600020905b81548152906001019060200180831161082657829003601f168201915b50505060028085018054604080516020601f60001961010060018716150201909416959095049283018590048502810185019091528181529596959450909250908301828280156108d55780601f106108aa576101008083540402835291602001916108d5565b820191906000526020600020905b8154815290600101906020018083116108b857829003601f168201915b50505050600383015460049093015491929160ff16905085565b60005481565b336000908152600160205260409020545b90565b6040518060a00160405280600081526020016060815260200160608152602001600081526020016000151581525090565b828054600181600116156101000203166002900490600052602060002090601f016020900481019282601f1061097b57805160ff19168380011785556109a8565b828001600101855582156109a8579182015b828111156109a857825182559160200191906001019061098d565b506109b49291506109b8565b5090565b61090691905b808211156109b457600081556001016109be56fea265627a7a72315820f68d9adbe0ab75f0bc34e8a45dd5f68c00a938faba26fcfaf7dba0c9c340e9a364736f6c634300051000325468697320697320612073616d706c65206c6f6e67206465736372697074696f6e",
  "source": "// SPDX-License-Identifier: MIT\npragma solidity ^0.5.0;\n\ncontract TodoList {\n    uint public taskCount = 0;\n\n    struct Task {\n        uint id;\n        string content;\n        string longDescription;\n        uint dueDate;  // Unix timestamp\n        bool completed;\n    }\n\n    mapping(address => uint) public taskCounts;\n    mapping(address => mapping(uint => Task)) public tasks;\n\n    event TaskCreated(\n        uint id,\n        string content,\n        string longDescription,\n        uint dueDate,\n        bool completed\n    );\n\n    event TaskCompleted(\n        uint id,\n        bool completed\n    );\n\n    constructor() public {\n        // Example task for testing, can be removed in production\n        createTask(\"Sample task\", \"This is a sample long description\", now + 1 days);\n    }\n\n    function createTask(string memory _content, string memory _longDescription, uint _dueDate) public {\n        taskCounts[msg.sender] ++;\n        uint _taskId = taskCounts[msg.sender];\n        tasks[msg.sender][_taskId] = Task(_taskId, _content, _longDescription, _dueDate, false);\n        emit TaskCreated(_taskId, _content, _longDescription, _dueDate, false);\n    }\n\n    function toggleCompleted(uint _id) public {\n        Task storage _task = tasks[msg.sender][_id];\n        _task.completed = !_task.completed;\n        emit TaskCompleted(_id, _task.completed);\n    }\n\n    function getTaskCount() public view returns (uint) {\n        return taskCounts[msg.sender];\n    }\n\n    function getTask(uint _id) public view returns (uint, string memory, string memory, uint, bool) {\n        Task memory _task = tasks[msg.sender][_id];\n        return (_task.id, _task.content, _task.longDescription, _task.dueDate, _task.completed);\n    }\n\n    function() external payable {\n    }\n}\n",
  "sourcePath": "/Users/dhianpratama/DEAKIN/Courses/SIT728 - Blockchain/5.3D/src-deakin/contracts/TodoList.sol",
  "compiler": {
    "name": "solc",
    "version": "0.5.16+commit.9c3226ce.Emscripten.clang"
  },
  "schemaVersion": "3.4.1",
  "updatedAt": "2024-08-22T06:50:54.746Z",
  "networkType": "ethereum",
  "devdoc": {
    "methods": {}
  },
  "userdoc": {
    "methods": {}
  }
}